:1000000000000420B5020000DD020000DF02000055
:10001000E1020000E3020000E50200000000000031
:10002000000000000000000000000000E7020000E7
:10003000E902000000000000EB020000ED020000F9
:10004000EF020000EF020000E5120000EF020000E6
:10005000EF020000EF020000E50D0000EF020000DB
:10006000EF020000EF020000EF020000EF020000CC
:10007000EF020000EF020000EF020000EF020000BC
:10008000EF020000110B0000EF020000EF02000081
:10009000EF020000EF020000EF020000EF0200009C
:1000A000EF020000EF020000EF020000EF0200008C
:1000B000EF020000EF02000000000000000000005E
:1000C000EF020000EF020000EF020000EF0200006C
:1000D000EF020000EF020000EF020000EF0200005C
:1000E000EF020000EF020000EF020000000000003D
:1000F00000000000EF02000000000000EF0200001E
:1001000000000000000000000000000000000000EF
:1001100000000000000000000000000000000000DF
:1001200000000000000000000000000000000000CF
:1001300000000000000000000000000000000000BF
:1001400000000000000000000000000000000000AF
:10015000000000000000000000000000000000009F
:10016000000000000000000000000000000000008F
:10017000000000000000000000000000000000007F
:10018000000000000000000000000000000000006F
:10019000000000000000000000000000000000005F
:1001A000000000000000000000000000000000004F
:1001B000000000000000000000000000000000003F
:1001C000000000000000000000000000000000002F
:1001D000000000000000000000000000000000001F
:1001E000000000000000000000000000000000000F
:1001F00000000000000000000000000000000000FF
:1002000010B5054C237833B9044B13B10448AFF350
:1002100000800123237010BD70000020000000004A
:10022000201D000008B5034B1BB103490348AFF381
:10023000008008BD0000000074000020201D0000A8
:10024000154B002B08BF134B9D46A3F5803A0021A8
:100250008B460F461348144A121A01F09FFC0F4BAD
:10026000002B00D098470E4B002B00D09847002061
:10027000002104000D000D48002802D00C48AFF307
:10028000008001F059FC2000290001F0F9FA01F08A
:100290003FFC00BF00000800000004200000000038
:1002A0000000000070000020B006002000000000E8
:1002B000000000000649074A074B9B1A03DD043B78
:1002C000C858D050FBDC01F013FBFFF7B9FF00006A
:1002D000801D00000000002070000020FEE7FEE707
:1002E000FEE7FEE7FEE7FEE7FEE7FEE7FEE7FEE7E6
:1002F000704700BF064B074810B500221A7000F087
:10030000B3FC044610B9044800F05EFD204610BD61
:100310005C010020641D0000E01B00002DE9F0439B
:10032000894CD4E901239A4285B060D00023C4F8F7
:100330001834BFF34F8FA568EAB2D31C04EB8301D6
:1003400014F82330580718D566680B7803F00303B8
:10035000012B42D0022B03D14B88023505EB9315BC
:10036000EAB2D4F81804D31C04EB830128B9AE42D6
:1003700039D914F823305B07E7D404EB82026B1CF5
:10038000D2680192DBB204EB830302F00302DB6864
:100390000293022A05F102062DD0012A00F088807E
:1003A000D4F810543DB12B6828469B689847EB68F9
:1003B0001D68002DF7D16548654B6649C01AC00815
:1003C000000440F0020000F0CBF8D4E90130C01A7C
:1003D00018BF012005B0BDE8F0830B880235C3F3D8
:1003E00083131D44BCE7A66005B0BDE8F083002080
:1003F00005B0BDE8F083BDF806305748C3F389184F
:100400004546502D28BF502565F38F1305F108018F
:10041000ADF8063000F02AFC07460028C0D000F0F6
:100420006FFC002301A90822384600F099FCF34331
:10043000DBB20133B5EB830F4FEA8309F1B272D916
:10044000A5EB0905033104EB810108234A46384630
:10045000EDB200F085FC41492A4609F1080338460F
:1004600000F07EFC08F1030806EB9806D4F8183477
:10047000002B65D1D4F8105465B1EB685A79284641
:100480003946002A58D02B681B689847EB681D68CE
:10049000002DF2D1384600F037FC002000F026FB9A
:1004A000D4F8183403B9A660002000F027FB8CE7CD
:1004B000BDF804302848C3F38312062A28BF062259
:1004C000911C62F389138900ADF8043000F0CEFB73
:1004D000074600283FF464AF00F012FC0023082216
:1004E00001A9384600F03CFCBDF8043013F4707FDD
:1004F000BCD06FF00108A8EB05080825F1B2033164
:100500002B46042204EB8101384600F029FCBDF89B
:100510000420013608EB0603C2F383129A4205F168
:100520000405EBD8A2E703312A4604EB8101082336
:10053000384600F015FC95E71D68002D9DD1A9E710
:10054000384600F0E1FB40E75C010020441D00005C
:10055000241D0000C81B0000641D0000680100206D
:100560002DE9F04F5C4C87B0064600200F4600F0A6
:10057000BDFAD4E9015303F580735B1B012B7DD8D1
:1005800004F21C4804F5836A04F214491AE0BDF829
:100590000E30C3F389130333090C0BEB930B48465E
:1005A000019100F0F9FA0199002839D04046C4F8C9
:1005B00008B000F0C5FAD4E9013202F58072D21A0F
:1005C000012A5CD80121404600F0BAFA504600F0FA
:1005D000D3FA484600F0D0FAA368DAB2D11C04EB93
:1005E000810014F8211001F0040C490728D404EB11
:1005F0008202591CD2680392C9B204EB810102F055
:100600000302012AC96803F1020B30D0022ABED0CE
:1006100000214846019100F0BFFA01990028C5D198
:100620004046C6E743880EEB9313DAB2D11C04EBC5
:10063000810014F8211001F0040CBCF1000FD6D099
:10064000017801F0030101290BD0022903F1020E08
:1006500002F10301E6D004EB8100BCF1000FEFD101
:10066000C5E702880233C2F383121344DDE7BDF805
:100670000C30C3F38313090C9B4490E72B46DAB28A
:10068000033202330521002044F82210636000F099
:1006900035FA0021114800F045FA80F31000F1000E
:1006A0006B1C01F03801DBB2EDB204EB830341F0C7
:1006B00001010004033540EA164641EA8727DE605F
:1006C00044F8257023781BB1FFF728FE0028FBD1E2
:1006D00007B0BDE8F08F00BF5C0100207805002066
:1006E0002DE9F04F654C89B0064600201F4688462C
:1006F000039200F0FBF9D4E9015303F580735B1B0F
:10070000032B00F2828004F21C4904F5836B04F28F
:10071000144A1BE0BDF81620C2F389120332090CFB
:1007200003EB92035046CDE9013100F035FA02990E
:1007300000283BD0019BA360484600F001FAD4E9B1
:10074000013202F58072D21A032A5FD8012148468D
:1007500000F0F6F9584600F00FFA504600F00CFA97
:10076000A368DAB2D11C04EB810014F821C01CF09C
:10077000040F0CF0040128D104EB8202591CD2684A
:100780000592C9B204EB810102F00302012AC96893
:1007900003F1020332D0022ABCD000215046CDE939
:1007A000013100F0F9F902990028C3D14846C4E7A5
:1007B00043880EEB9313DAB2D11C04EB810014F8DA
:1007C000211001F004010029D6D090F800C00CF0EF
:1007D000030CBCF1010F0BD0BCF1020F03F1020EB0
:1007E00002F1030CE4D004EB8C000029EDD1C3E747
:1007F00002880233C2F383121344DCE7BDF81420ED
:10080000C2F38312090C13448CE72B46DAB203328D
:1008100004338521002044F82210636000F06EF953
:10082000AA1CEB1CDBB2D2B204EB830C04EB8202F9
:10083000039B1348D3600021CCF80C7000F072F9D0
:1008400080F31000F1006B1C01F03801DBB2EDB257
:1008500004EB830341F081010004033540EA1646AE
:1008600041EA8821DE6044F8251023781BB1FFF7A8
:1008700055FD0028FBD109B0BDE8F08F5C010020D8
:10088000780500202DE9F04F684C89B0064600201D
:100890001F468846039200F029F9D4E9015303F575
:1008A00080735B1B042B00F2828004F21C4904F568
:1008B000836B04F2144A1BE0BDF81620C2F38912C0
:1008C0000332090C03EB92035046CDE9013100F0ED
:1008D00063F9029900283BD0019BA360484600F0D1
:1008E0002FF9D4E9013202F58072D21A042A5FD8B6
:1008F0000121484600F024F9584600F03DF95046E1
:1009000000F03AF9A368DAB2D11C04EB810014F8C4
:1009100021C01CF0040F0CF0040128D104EB82026A
:10092000591CD2680592C9B204EB810102F003029E
:10093000012AC96803F1020332D0022ABCD0002187
:100940005046CDE9013100F027F902990028C3D1C2
:100950004846C4E743880EEB9313DAB2D11C04EB8C
:10096000810014F8211001F004010029D6D090F87C
:1009700000C00CF0030CBCF1010F0BD0BCF1020F56
:1009800003F1020E02F1030CE4D004EB8C00002909
:10099000EDD1C3E702880233C2F383121344DCE7CC
:1009A000BDF81420C2F38312090C13448CE72B46C4
:1009B000DAB203320533C521002044F82210636007
:1009C00000F09CF8A81CEA1C2B1DC0B2DBB204EBA3
:1009D0008000D2B204EB830C04EB8202039BC36061
:1009E0000021129B1248D760CCF80C3000F09AF826
:1009F00080F31000F1006B1C01F03801DBB2EDB2A6
:100A000004EB830341F0C1010004033540EA1646BC
:100A100041EA8821DE6044F8251023781BB1FFF7F6
:100A20007DFC0028FBD109B0BDE8F08F5C010020FF
:100A30007805002038B5084BD3F8104401251D7007
:100A40004CB1E3685D71236820465B689847E368B2
:100A50001C68002CF5D138BD5C01002000B585B0C4
:100A60000346002101AA44F20100CDE901110393DC
:100A700000F004F805B05DF804FB00BF10B572B6D5
:100A8000FFF7D8FFFFF74AFC0028FBD1104B114CB1
:100A90001149E41AE408240444F00100FFF760FD62
:100AA0000E4B1B68DB0700D500BE0D4944F0020069
:100AB000FFF756FDBFF34F8F0A490B4BCA6802F48C
:100AC000E0621343CB60BFF34F8F00BFFDE700BF71
:100AD000241D0000441D0000F81B0000F0ED00E0A4
:100AE000041C000000ED00E00400FA0572B6024AA2
:100AF000136801331360704714060020034A13681B
:100B0000013B136003B962B6704700BF14060020B2
:100B1000024A034B10681B68184700BF18060020E4
:100B20002006002010B4034653E8000F0A4643E8AD
:100B3000002494F0000FF7D15DF8044B704700BF1C
:100B400010B4034653E8002F02EB010043E8000411
:100B500094F0000FF6D15DF8044B704710B40346D3
:100B600053E8002FA2EB010043E8000494F0000FCB
:100B7000F6D15DF8044B704710B40346012253E8E8
:100B8000001F41EA020043E8000494F0000FF6D190
:100B90005DF8044B704700BF10B40346002253E8D1
:100BA000000F00EA020143E8001494F0000FF6D1B0
:100BB0005DF8044B704700BFB8B130B4D0E9011202
:100BC000521A0468D2B2531E2160DBB242B10168EE
:100BD0000A685C1E551C0D601370E3B2FF2BF6D142
:100BE00003680020187130BC70470E20704700BFAA
:100BF00038B504460020FFF779FFD4E900311A68C0
:100C00008A4215D9511E19602168A3680868258A8F
:100C100012F8012CE4681B1A0879DBB2984205FB34
:100C2000024400D20B710020FFF768FF204638BD58
:100C300000240020FFF762FF204638BD38B5054686
:100C400000200C46FFF752FF2A681368591C1160F8
:100C5000E9682A8A641AB4FBF2F41C70BDE83840D3
:100C60000020FFF74BBF00BFFFF7A6BF2DE9F04103
:100C7000058A0331043D4E198046B6FBF5F6FFF7B1
:100C8000B7FFA0B3F6B24FF48073013E0446C580AF
:100C9000C0F8008083802BD00346002508E06279ED
:100CA000AE4202F1010262713860C0F800801FD0CC
:100CB00040461F46FFF79CFF013503460028EED152
:100CC0006779791E17D02246013399421268FBD109
:100CD000D2F800805FB12668002501E0344636680E
:100CE000214601354046FFF7A9FFAF42F6D8002460
:100CF0002046BDE8F08120682146FFF79FFFF6E718
:100D000004300121FFF71CBF2DE9F0410121044609
:100D10000430FFF723FF10F0FF0301D0BDE8F0819E
:100D20006779791E16D02246013399421268FBD1A9
:100D3000D2F80080002FF1D02668002501E034466B
:100D40003668214601354046FFF778FFAF42F6D8B6
:100D5000BDE8F08120682146BDE8F041FFF76EBF95
:100D60002DE9F8430546C6884079144606FB00F293
:100D7000043A04EB030C1F1D624538BFD41ABE426F
:100D80008846B7FBF6F106FB117002D801392D68D1
:100D9000FCD1371AA74228BF27469CB14FF0000963
:100DA0000430E41B28443A4608EB090100F0E8FE51
:100DB000A642B9442D6837464FF0000028BF2746A9
:100DC000002CEDD1BDE8F88382680023936082682F
:100DD0001361826853618268D3608268536082685D
:100DE000136070472DE9F047002384B0CDE902334A
:100DF000D54A1168012900F040821E46D34B1A687B
:100E0000012A00F02C82D24B1A68012A00F01982C4
:100E1000D04B1A68012A00F00682CF4B1A68012ACB
:100E200000F0F381CD4B1A68012A00F0E081CC4B31
:100E30001A68012A00F0CD81CA4B1A68012A00F015
:100E4000A181C94B1A68012A20D0E6B1C74F0024FE
:100E50000125A30003F18043354203F5C0434FEA67
:100E600045050BD0D3F8100557F82420D3F81015FA
:100E7000C0F30520C1F3014102B190470134082CB1
:100E8000E7D1002E17DB04B0BDE8F08700221A601E
:100E90001B6801934FF0A042019BD2F82015B44B80
:100EA0000291C2F82015D3F820250392C3F820251B
:100EB000002E40F08B81AD4CAD4E01254FF0A04788
:100EC00094F96000431C46D0C0F3C20204AB1A443C
:100ED00000F0070312F8082C05FA03F31A42C1B216
:100EE00000F03F0037D01F2800F2258102464FF066
:100EF000A04909EB820304EB000ED3F800C7D3F836
:100F0000008728F44038C3F80087CCF3014C9EF9E1
:100F10003080D3F800E754F82880BCF1020F0CBFF2
:100F20004FF4403A4FF4003A05FA02F24EEA0A0E44
:100F3000C3F800E7C9F82025B8F1000F0BD08909E4
:100F4000032900F0B381BCF1020F00F0BE81BCF1B7
:100F5000030F00F0A88194F96100411C46D0C0F352
:100F6000C20204AB1A4400F0070312F8082C05FA79
:100F700003F31A42C1B200F03F0037D01F2800F23D
:100F8000DE8002464FF0A04909EB820304EB000E1D
:100F9000D3F800C7D3F8008728F44038C3F8008797
:100FA000CCF3014C9EF93080D3F800E754F8288048
:100FB000BCF1020F0CBF4FF4403A4FF4003A05FA6F
:100FC00002F24EEA0A0EC3F800E7C9F82025B8F18C
:100FD000000F0BD08909032900F06D81BCF1020FCD
:100FE00000F06B81BCF1030F00F0628194F96200A4
:100FF000421C46D0C0F3C20204AB1A4400F00703FF
:1010000012F8082C05FA03F31A42C1B200F03F00AF
:1010100037D01F2800F2AE8002464FF0A04909EBFE
:10102000820304EB000ED3F800C7D3F800879EF9C3
:1010300030E028F44038C3F80087CCF3014CD3F8F3
:1010400000A754F82E80BCF1020F0CBF4FF4403EB5
:101050004FF4003E05FA02F24EEA0A0EC3F800E72A
:10106000C9F82025B8F1000F0BD08909032900F039
:101070001381BCF1020F00F02481BCF1030F00F0DA
:10108000088194F96300431C45D0C0F3C20204AB4D
:101090001A4400F0070312F8082C05FA03F31A4269
:1010A000C1B200F03F0036D01F2867D802464FF08B
:1010B000A04909EB820304EB000ED3F800C7D3F874
:1010C00000879EF930E028F44038C3F80087CCF35D
:1010D000014CD3F800A754F82E80BCF1020F0CBFCE
:1010E0004FF4403E4FF4003E05FA02F24EEA0A0E7B
:1010F000C3F800E7C9F82025B8F1000F0BD0890923
:10110000032900F0CE80BCF1020F00F0E280BCF1B8
:10111000030F00F0C380D7F820250292C7F82025DE
:10112000D6F820350393C6F8203513437FF4C8AEB4
:1011300004B0BDE8F08701F01F02B146D9E601F026
:101140001F02B14620E700BF00610040046100407B
:10115000086100400C6100401061004014610040D3
:10116000186100401C6100407C610040280600209E
:101170000003005001F01F02B14650E701F01F02CA
:10118000B14696E7554AD2F8042312067FF559AEC8
:1011900000221A6019680091196E0098012903F164
:1011A000600346F080067FF450AE1A601B6801931E
:1011B0004FF0A042019BD2F82015494B0291C2F892
:1011C0002015D3F820250392C3F8202546F00046C9
:1011D0003CE6424AD2F8042351067FF52DAE0022A8
:1011E0001A601B680093009B46F0400624E63B4AC9
:1011F000D2F8042390067FF51AAE00221A601B680D
:101200000093009B46F0200611E6344AD2F80423EE
:10121000D4067FF507AE00221A601B680093009B7E
:1012200046F01006FEE52D4AD2F8042315077FF597
:10123000F4AD00221A601B680093009B46F008067C
:10124000EBE5264AD2F8042357077FF5E1AD0022EB
:101250001A601B680093009B46F00406D8E51F4AFD
:10126000D2F8042392077FF5CEAD00221A601B68E6
:101270000093009B46F00206C5E51849D1F80463C7
:1012800016F001063FF4BAAD136013680093009B9B
:10129000B4E502297FF4F5AEC047F2E602297FF4F7
:1012A0003AAFC04737E702297FF455AEC04752E650
:1012B00002297FF49BAEC04798E601297FF496AEE1
:1012C000F9E701297FF4DDAEE6E701297FF443AEBB
:1012D000ECE701297FF41FAFE3E700BF00600040A7
:1012E00000030050014B1B68184700BF9406002004
:1012F00080B485B000AF78607B68042B02D10C23EA
:10130000FB6008E07B680C2B02D14023FB6002E00D
:101310007B689B00FB6000237B6002E07B680433FA
:101320007B607A68FB689A42F8D900BF00BF143727
:10133000BD465DF8047B70472DE9704F4FF0A04328
:10134000A04D03211022C3F81017C3F80C2545F057
:101350000105DC244FF47A40A847013CFAD14FF054
:10136000A0431022C3F81047C3F808256E244FF499
:101370007A40A847013CFAD14FF0A0464FF0030A4B
:101380004FF01008C6F810A7C6F80C854FF47A4045
:10139000A8474FF47A40A847C6F81047C6F8088512
:1013A0004FF47A40A8474FF48060FFF7A1FFB146A1
:1013B000C6F810A7D52408260CE0FFF799FFC9F856
:1013C00008850420FFF794FF731E640013F0FF06E6
:1013D000E4B20ED023064FF00C00C9F80C85ECD512
:1013E0000220FFF785FFC9F808850C20FFF780FF72
:1013F000EAE74FF4C8604FF0A048A8470323C8F8B5
:1014000010370826E4244FF010090CE0FFF770FFB6
:10141000C8F808950420FFF76BFF731E640013F0F3
:10142000FF06E4B20ED021064FF00C00C8F80C9570
:10143000ECD50220FFF75CFFC8F808950C20FFF7F9
:1014400057FFEAE74FF0A0480323C8F810370826F3
:10145000FF244FF010090CE0FFF74AFFC8F8089589
:101460000420FFF745FF731E640013F0FF06E4B28B
:101470000ED022064FF00C00C8F80C95ECD50220D7
:10148000FFF736FFC8F808950C20FFF731FFEAE7B1
:101490004FF0A0480323C8F81037082401264FF066
:1014A00010090CE0FFF724FFC8F808950420FFF7A7
:1014B0001FFF611E760011F0FF04F6B20ED0330656
:1014C0004FF00C00C8F80C95ECD50220FFF710FF88
:1014D000C8F808950C20FFF70BFFEAE74FF4C86047
:1014E000A847394821460222064600F057FB4FF034
:1014F000070B4FF0A04A4FF003094FF010080023EC
:10150000CAF81097CAF81037DAF81045CAF80C85EF
:101510001020FFF7EDFEC4F30014337804FA0BF447
:101520000BF1FF3B1C43BBF1FF3F3470E7D14FF0A1
:10153000070B4FF0A04A4FF003094FF010080023AB
:10154000CAF81097CAF81037DAF81045CAF80C85AF
:101550001020FFF7CDFEC4F30014737804FA0BF4E7
:101560000BF1FF3B1C43BBF1FF3F7470E7D14FF41D
:101570008060FFF7BDFE73781448ABB1144C32782D
:101580001449001BC008000440F00300FFF7A8F84E
:10159000FEF7C4FE0028FBD164244FF47A40A8472C
:1015A000013CFAD1BDE8708F094B0B49C01AC00845
:1015B000000440F00300FEF7D3FFFEF7AFFE002863
:1015C000FBD1E9E7101D00009C060020441D00002F
:1015D000241D0000481C0000701C000008B54FF4DA
:1015E00080410020FEF786FE18B9BDE80840FEF7EE
:1015F0007FBEFFF733FABDE80840FEF779BE00BFB3
:101600002DE9704F2DED028B84B0FFF795FE954BC1
:101610001A88954B1B889A4200F21F81934B94497C
:10162000944ADFF854925B1ADB081B0443F003036F
:1016300008EE103A42F00103102502934FF0A04447
:101640004FF0030A4FF0000B1023C4F80C35C4F818
:1016500010A7029E4FF47A40B0474FF47A40B0474B
:101660004FF47A40C4F80855C4F810B7B0477D4B22
:101670004FF480601B8803930826FFF739FE4FF074
:10168000D508C4F810A70EE0FFF732FEC4F80855DD
:101690000420FFF72DFE013E4FEA480816F0FF0632
:1016A0005FFA88F80FD018F0800F4FF00C00C4F8E4
:1016B0000C55E9D00220FFF71BFEC4F808550C209A
:1016C000FFF716FEE7E7029B4FF4C86098474FF01C
:1016D0000808C4F810A7E4260DE0FFF709FEC4F8D7
:1016E00008550420FFF704FE08F1FF38760018F0D3
:1016F000FF08F6B20ED032064FF00C00C4F80C55BD
:10170000EBD50220FFF7F4FDC4F808550C20FFF7D5
:10171000EFFDE9E7C4F810A7039B08264FEA13285A
:101720000EE0FFF7E5FDC4F808550420FFF7E0FDE3
:10173000013E4FEA480816F0FF065FFA88F80FD01E
:1017400018F0800F4FF00C00C4F80C55E9D00220BF
:10175000FFF7CEFDC4F808550C20FFF7C9FDE7E7F9
:101760009DF80C60C4F810A74FF008080DE0FFF7D3
:10177000BFFDC4F808550420FFF7BAFD08F1FF3893
:10178000760018F0FF08F6B20ED033064FF00C00CA
:10179000C4F80C55EBD50220FFF7AAFDC4F8085594
:1017A0000C20FFF7A5FDE9E7029B4FF4C8609847BE
:1017B00041463148022200F0F1F94FF00708C4F821
:1017C00010A7C4F810B7D4F81065C4F80C55102051
:1017D000FFF78EFDC6F3001699F8003006FA08F6FA
:1017E00008F1FF381E43B8F1FF3F89F80060E6D1E9
:1017F0004FF00708C4F810A7C4F810B7D4F8106564
:10180000C4F80C551020FFF773FDC6F3001399F8C8
:10181000016003FA08F3334308F1FF38DBB2B8F193
:10182000FF3F89F80130E5D10E4A0093164699F83A
:1018300000301288114918EE100AFFF723F8338898
:1018400002333380FEF76AFD0028FBD1054B1A886E
:10185000054B1B889A427FF6F7AE04B0BDEC028BB5
:10186000BDE8708F0000002002000020441D000031
:10187000241D0000101D00009C060020841C000098
:1018800008B5FFF7ABFE72B64FF0A043144D03212D
:101890001022C3F81017C3F8082545F00105642489
:1018A0004FF47A40A847013CFAD10E480E4B0F493D
:1018B000C01AC008000440F00300FEF751FEFEF716
:1018C0002DFD0028FBD1FFF79BFEFEF727FD00282A
:1018D000FBD164244FF47A40A847013CFAD1F4E7E5
:1018E000101D0000441D0000241D0000F41C000019
:1018F00010B4754B1B68082B1CD0744AD2F8883082
:1019000043F47003C2F88830BFF34F8FBFF36F8F7B
:101910004FF01023D3F80022002AC0F2A380D3F89E
:101920000432002BC0F29E80694B6A4A1A605DF84F
:10193000044B70474FF080414FF080520020C1F8B7
:101940000C01654BC1F81001C1F83805D2F8041438
:10195000C3F82015D2F80814C3F82415D2F80C14D3
:10196000C3F82815D2F81014C3F82C15D2F81414A3
:10197000C3F83015D2F81814C3F83415D2F81C1473
:10198000C3F84015D2F82014C3F84415D2F8241433
:10199000C3F84815D2F82814C3F84C15D2F82C1403
:1019A000C3F85015D2F83014C3F85415D2F83414D3
:1019B000C3F86015D2F83814C3F86415D2F83C04A3
:1019C000C3F868054549D2F84004C3F86C050968B6
:1019D000D2F84424C3F87025032937D8404B5B5C08
:1019E00013B1404B404A1A60404B5B5C63B1364BCD
:1019F0003F491B68394AFB20C1F81805082B1168BC
:101A00007FF47BAF032921D83A4B5B5C93B13A4812
:101A10003A4B2D4C02681B682468304922F00F02B3
:101A200003F00F031343082C096803607FF465AFCC
:101A300003290BD8324B5B5C43B1234B314A1B6803
:101A40004FF40071082B11607FF457AF4FF08043C3
:101A5000D3F80024D2077FF550AF6FF00102C3F82E
:101A600000244AE7284A0123C2F80435D2F800349A
:101A7000002BFBD04FF010231221234AC3F8001291
:101A8000D2F80034002BFBD04FF0102312211E4A55
:101A9000C3F80412D2F80034002BFBD000231A49FB
:101AA000C2F80435D1F80034002BFBD0BFF34F8FC0
:101AB0000649164BCA6802F4E0621343CB60BFF3D9
:101AC0004F8F00BFFDE700BF3001001000ED00E0C8
:101AD000040000200090D00300C00040340100103A
:101AE000181D00008C56004048810300181D00009E
:101AF00000F00040181D0000E40E004058020010E5
:101B0000181D00004096024000E001400400FA0564
:101B100008B5074B044613B10021AFF30080054B15
:101B20001868836A03B19847204600F03FF800BF69
:101B3000000000001C1D000070B50D4D0D4C641B15
:101B4000A4100026A64209D10B4D0C4C00F030F831
:101B5000641BA4100026A64205D170BD55F8043BB5
:101B600098470136EEE755F8043B98470136F2E70F
:101B70006800002068000020680000206C00002041
:101B80000A44914200F1FF3300D1704710B511F8BB
:101B9000014B03F8014F9142F9D110BD02440346B5
:101BA000934200D1704703F8011BF9E7FEE700BF3D
:101BB000F8B500BFF8BC08BC9E467047F8B500BF3A
:101BC000F8BC08BC9E4670474261636B656E6473E7
:101BD00020666C75736865640000000061707000B9
:101BE0007C0500207F000000FC0500206170705F14
:101BF000627574746F6E0000466174616C2065726A
:101C0000726F720053797374656D207265736574B9
:101C1000000000006170705F74696D657200000003
:101C2000736F72746C697374000000004750494F01
:101C300054450000505253005541525400000000DA
:101C4000554152544500000062646D5F73746172C7
:101C500074207265616479207769746820636F64A9
:101C60006520307825303258253032580A0000007F
:101C700062646D5F7374617274206661696C200ABE
:101C8000000000006C6F63616C2061646472202549
:101C90003034583A20253032582530325800000070
:101CA0003078303030422076616C756520253032D6
:101CB0005825303258000000307845342076616C69
:101CC000756520253032582530325800307845303F
:101CD0002076616C756520253032582530325800E9
:101CE0006164647220253034583A202530325825FA
:101CF0003032580042444D2074657374207374610F
:101D0000727465642E0000000000000000000000F6
:101D10000338FDD8704700000100000008000020D3
:041D200000000000BF
:101D24002C1C000000000000341C00000000000017
:101D3400381C000000000000401C000000000000EF
:101D4400DC1B000000000303EC1B0000000000008B
:101D5400141C000000000000201C00000000000013
:101D64008C000020540100205C010020940000201D
:041D74001800000053
:081D7800C8E4FF7F0100000038
:101D80000004A0040090D003000000000000000048
:101D90000000000000000000000000000000000043
:101DA0000000000000000000000000000000000033
:101DB0000000000000000000000000000000000023
:101DC0000000000000000000000000000000000013
:101DD0000000000000000000000000000000000003
:101DE00000000000000000002502000001020000C9
:04000003000002B542
:00000001FF
