:020000040800F2
:10000000B007002091010008B7150008AB140008E4
:10001000B51500080F0600081518000800000000BC
:10002000000000000000000000000000BB150008F8
:100030001D06000800000000B9150008BD150008E5
:10004000AB010008AB010008AB010008AB010008E0
:10005000AB010008AB0100081F060008AB01000857
:10006000AB010008AB010008AB010008AB010008C0
:10007000AB010008AB01000811060008AB01000845
:10008000AB010008AB010008AB010008AB010008A0
:10009000AB010008AB010008AB010008AB01000890
:1000A000AB010008AB010008AB010008AB01000880
:1000B000AB010008AB010008AB010008AB01000870
:1000C000AB010008AB010008AB010008AB01000860
:1000D000AB010008AB010008AB010008AB01000850
:1000E000AB010008AB010008AB01000800F002F80A
:1000F00000F03FF80AA090E8000C82448344AAF183
:100100000107DA4501D100F034F8AFF2090EBAE880
:100110000F0013F0010F18BFFB1A43F0010318473B
:10012000181B0000381B0000103A24BF78C878C1A3
:10013000FAD8520724BF30C830C144BF04680C60ED
:10014000704700000023002400250026103A28BF35
:1001500078C1FBD8520728BF30C148BF0B60704739
:10016000782900F07180002070471FB51FBD10B5C1
:1001700010BD00F012FA1146FFF7F7FF01F092FCF4
:1001800000F030FA03B4FFF7F2FF03BC00F038FAD6
:100190000948804709480047FEE7FEE7FEE7FEE71B
:1001A000FEE7FEE7FEE7FEE7FEE7FEE70448054957
:1001B000054A064B704700001F160008ED000008B6
:1001C000B0010020B0070020B0030020B0030020E1
:1001D0000FB41CB5074B06AA7B44694600900598EE
:1001E00000F0C3F90020694600F0D2F91CBC5DF8AC
:1001F00014FB0000B503000070B504468569006873
:10020000C10601D5302600E02026C00707D070BD0A
:10021000D4E9012130469047206A401C20626D1EBF
:10022000F6D570BD70B5044685690078C00707D162
:1002300070BDD4E9012120209047206A401C206233
:100240006D1EF6D570BD000070B504460D46214602
:100250001068AFF300802188090502D50F4A7A445F
:1002600002E00E4A7A440E32002104F1240305E034
:1002700000F00F060009965D5E54491C0028F7D176
:1002800020780023000704D5702D02D009B1022385
:1002900011322046BDE8704000F009B99A190000FB
:1002A0002DE9F05F894604464FF0000ADFF824B1DB
:1002B000FB44C0F820A02046E168884700287DD094
:1002C000252806D0D4E901219047206A401C2062ED
:1002D000F1E700255F462046E1688847202806466A
:1002E00007DB312E05D2B81910F8200C08B10543F0
:1002F000F1E7A80701D525F00405C4F81CA00027E4
:10030000C4F818A02A2E09D0304601F094FA38B368
:1003100004EB8708303EC8F8186019E059F8041B50
:10032000204604EB87029161E1688847012F064669
:1003300018D1E069002820DA25F020051DE0D8F862
:10034000180000EB800006EB40003038C8F81800B9
:100350002046E1688847064601F06DFA0028EED194
:10036000012F0AD02E2E08D12046E16888477F1C35
:100370000646022F45F02005C4DBA069002803DAF9
:10038000404245F00105A061E80701D025F01005C5
:10039000A6B1A6F14100192802D8203645F400651F
:1003A0004A463146204625604D46FFF7D9FE60B1EA
:1003B000012807D0ED1D25F0070000E007E000F15F
:1003C000080978E705F1040975E730467AE7206AFD
:1003D000BDE8F09F7019000010B5431C02E010F852
:1003E000011B71B18107FAD14FF0013202C88C1A9A
:1003F0008C4314EAC211F9D0C01A0A0603D0C01EF9
:1004000010BDC01A10BD0A0401D0801E10BD090223
:10041000FCD0401E10BD4FF000020429C0F0128035
:1004200010F0030C00F01B80CCF1040CBCF1020FA7
:1004300018BF00F8012BA8BF20F8022BA1EB0C017C
:1004400000F00DB85FEAC17C24BF00F8012B00F872
:10045000012B48BF00F8012B70474FF0000200B598
:10046000134694469646203922BFA0E80C50A0E8D7
:100470000C50B1F12001BFF4F7AF090728BFA0E885
:100480000C5048BF0CC05DF804EB890028BF40F851
:10049000042B08BF704748BF20F8022B11F0804F93
:1004A00018BF00F8012B70477047704770472DE95F
:1004B000F0470D4699469246044600F1240801682B
:1004C000880604D5E06921F01001216000E00120D8
:1004D000A84201DD471B00E00027A1697A1902EB61
:1004E0000900081AA0612078C00602D42046FFF750
:1004F00083FE002608E0D4E901211AF8060090479F
:10050000206A401C761C20624E45F4DB2078C00631
:100510000AD52046FFF770FE06E0D4E9012130201D
:100520009047206A401C2062381EA7F10107F4DCC6
:1005300007E0D4E9012118F805009047206A401C23
:100540002062281EA5F10105F3DC2046FFF76AFEB4
:100550002078000602D50220BDE8F0870120FBE7E5
:1005600001694A1C02610878704700B58FB0CDE977
:1005700001310021059105497944CDE90310114667
:100580006846FFF78DFE0FB000BD0000E5FFFFFFDE
:100590000A6802F8010B0A607047754600F02CF8F3
:1005A000AE4605006946534620F00700854618B060
:1005B00020B5FFF7FBFDBDE820404FF000064FF0EF
:1005C00000074FF000084FF0000B21F00701AC4688
:1005D000ACE8C009ACE8C009ACE8C009ACE8C009A7
:1005E0008D46704710B50446AFF300802046BDE845
:1005F0001040FFF7C7BD0000004870474C010020C5
:1006000001491820ABBEFEE7260002007047FEE756
:10061000014800F009B800000801002070470120DF
:1006200000F02EB972B6FEE72DE9F05FC16B0C68E1
:1006300001680B68D0F840C0042202FA0CF2494D60
:10064000DFF824A1494E4A4FDFF828B1DFF828E14E
:1006500022422CD05A072AD50A68920603D40A6887
:1006600022F004020A600168A94201D1042219E0C3
:10067000514501D1402215E0B14202D14FF48062D0
:1006800010E0B94202D14FF480420BE0594502D14B
:100690004FF4802206E0714502D14FF4800201E060
:1006A0004FF080622F4908394A60C16A3BE04FF041
:1006B000020808FA0CF818EA040F4FF000094FF08E
:1006C000010235D05FEA837832D50B689B0605D4EA
:1006D0000B6823F00A030B6080F821200168A9420F
:1006E00001D1022219E0514501D1202215E0B14289
:1006F00002D14FF4007210E0B94202D14FF400521F
:100700000BE0594502D14FF4003206E0714502D1A9
:100710004FF4001201E04FF00072124908394A60AC
:1007200080F82090816A00291AD0BDE8F05F084760
:10073000082505FA0CF5254212D01B0710D50B68C9
:1007400023F00E030B6090F84010C36B02FA01F126
:100750005960826380F8212080F82090016BE2E7E5
:10076000BDE8F09F080002401C000240300002403B
:1007700044000240580002406C00024030B528B3EB
:1007800008C8134914221944B1FBF2F18900C1636E
:1007900010498163022141771A6843F6F0718A4358
:1007A000D0E900142143D0E902452C4321430469D8
:1007B0002143446921438469214311431960002185
:1007C0004163012242770177084630BD012030BDE8
:1007D000F8FFFDBF0000024070B5044600F056F976
:1007E0000546601C02D004480078044400F04EF92D
:1007F000401BA042FAD370BD3800002070B51D4CDC
:1008000020781D4E002520B33068426AE178A6F1B9
:10081000340040F82120491CC9B2E170022918D9DE
:1008200081684068081AE060E068C0092061E068FB
:10083000103040096061606900EB4000E061606970
:1008400000EB80004008A061E068C00820622570CD
:10085000E570607830B14FF48071084800F00CF911
:1008600000B16570A078002803D03068406AA060AD
:10087000A57070BD000000207C0000200008014031
:10088000044910B50A68024202D00860FFF7B6FFBB
:1008900010BD0000140401402DE9F84FDFF8B891B5
:1008A000002409F1040A0AF1040B23460F270BF177
:1008B000040EC9E00125A5402A40AA427DD1674E19
:1008C000D1F804C0ACEB0608B44532D014DCBCF15E
:1008D000030F3AD009DCBCF1000F2AD0BCF1010FA4
:1008E0001CD0BCF1020F31D11DE0BCF1110F17D0AB
:1008F000BCF1120F2AD119E0B8F5881F19D006DC17
:10090000B8F5803F15D0B8F5801F1FD111E0B8F5BC
:10091000001F0ED0B8F5041F18D10AE0CB6815E00F
:10092000CB681B1D12E0CB6808330FE0CB680C339B
:100930000CE08B682BB1012B4FF0080303D045610D
:1009400004E0042302E0056100E00023FF2A01D84F
:10095000064601E000F104064FEA840501D9A5F13D
:100960002005D6F8008007FA05FC28EA0C0803FAEF
:1009700005F548EA0508C6F800804D68ED0062D527
:10098000374DAE6946F00106AE61AD6924F003064D
:1009900005F001050095334D06EB050CDCF8085019
:1009A000A607360F07FA06F825EA0805DFF8B8802B
:1009B000404503D14FF0000817E044E0DFF8AC8079
:1009C000404502D14FF001080FE0DFF8A480404518
:1009D00002D14FF0020808E0DFF89880404502D1CC
:1009E0004FF0030801E04FF0040808FA06F848EA5F
:1009F0000508CCF808804D68D9F80060ED034D4635
:100A000001D5164300E096432E604D68DAF8006089
:100A1000AD03554601D5164300E096432E604D6860
:100A2000DBF80060ED025D4601D5164300E0964319
:100A30002E604D68DEF80060AD02754601D51643A4
:100A400000E096432E60641C0D682A46E5407FF462
:100A500031AFBDE8F88F0000000401400000111024
:100A6000001002400000014000080140000C01405D
:100A700000100140001401408068084000D00120AF
:100A800070470AB1016170470904FBE701488068BB
:100A90007047000038000020024881680278114445
:100AA0008160704738000020074810B5016841F0A8
:100AB00010010160032000F075F80F2000F006F827
:100AC00000F024F8002010BD0020024070B50D4D4C
:100AD00004464FF47A712878B1FBF0F00A490968AE
:100AE000B1FBF0F000F0ECFA48B9102C07D200226C
:100AF0002146501E00F036F800206C6070BD0120C9
:100B000070BD000038000020440000200C4808B5EB
:100B1000816941F001018161816901F00101009168
:100B2000C16941F08051C161C06900F080500090FE
:100B30000448416821F0E06141F00071416008BD66
:100B40000010024000000140002809DB00F01F02F5
:100B5000012191404009800000F1E020C0F800111F
:100B600070470000F0B40E4B1B680C46C3F3022321
:100B7000C3F10705042D00D90425191D072901D249
:100B8000002300E0DB1E012606FA05F1491E214084
:100B900099409E40761E16403143F0BC00F03BBEAB
:100BA0000CED00E0064900F0070208684FF6FF036D
:100BB000184040EA0220034A1043086070470000D2
:100BC0000CED00E00000FA052DE9F0470F460500A6
:100BD00061D0434E306800F00700B84209D2306857
:100BE00020F0070038433060306800F00700B8425A
:100BF00051D128683B4C810712D5400703D5606866
:100C000040F4E06060602878000703D5606840F435
:100C1000605060606068A96820F0F0000843606080
:100C20002878C00728D06868012810D021680228D9
:100C300010D0890700292EDA616821F003010143F1
:100C40006160FFF723FF804641F288390DE021689B
:100C50008903EFE78901EDE7FFF718FFA0EB080133
:100C6000494502D90320BDE8F0876068696800F053
:100C70000C00B0EB810FEFD1306800F00700B842F4
:100C80000BD9306820F0070038433060306800F03E
:100C90000700B84201D00120E5E72878400705D5D4
:100CA0006068E96820F4E060084360602878000725
:100CB00006D56068296920F4605040EAC100606090
:100CC00000F038F86168084AC1F30311515CC8406C
:100CD0000649086006480068FFF7F8FE0020C2E7F2
:100CE0000020024000100240E41B000844000020E5
:100CF0003C0000200448054900684968044AC1F3E3
:100D00000221515CC840704744000020001002409E
:100D1000F41B00080448054900684968044AC1F307
:100D2000C221515CC84070474400002000100240BE
:100D3000F41B000812A185B00FC98DE80F0014A0A4
:100D4000144A006804905168134801F00C03042B06
:100D500010D0082B0ED1C1F38343C9031DF8030043
:100D60000AD5516804AAC1F34041515C0A4A504374
:100D7000B0FBF1F005B0704708494843FAE70000BE
:100D800002030405060708090A0B0C0D0E0F1010CC
:100D9000010200000010024000127A0000093D002C
:100DA0002DE9F84F040070D02078C04DC00749D01D
:100DB0006868C0F38100012807D06868C0F381002B
:100DC000022809D16868C00306D52868800339D590
:100DD00060680028E7D035E06068B0F5803F0BD050
:100DE00010B1B0F5A02F11D0286820F48030286011
:100DF000286820F4802002E0286840F480302860D1
:100E0000606890B1FFF742FE06460AE0286840F4A9
:100E100080202860F0E700BFFFF738FE801B6428C1
:100E200073D828688003F7D50CE0FFF72FFE06463D
:100E300005E000BFFFF72AFE801B6428F0D8286871
:100E40008003F7D420789A4E80074FF001094FF0C5
:100E5000000839D5686810F00C0F07D06868C0F337
:100E60008100022809D16868C00306D42868800779
:100E700014D52069012808D110E02069B0B1C6F866
:100E80000090FFF703FE074605E00AE1FFF7FEFDCD
:100E9000C01B0228C4D828688007F7D52868616974
:100EA00020F0F80040EAC10028600DE0C6F800809C
:100EB000FFF7ECFD074604E0FFF7E8FDC01B022842
:100EC00023D828688007F7D4207800072CD57948E4
:100ED000A169D9B1C0F80090FFF7D8FD074604E03A
:100EE000FFF7D4FDC01B02280FD8686A8007F7D52A
:100EF00071484FF4FA510068B0FBF1F0009000BF68
:100F00000098411E0091FAD20EE080E0C0F8008007
:100F1000FFF7BCFD074604E0FFF7B8FDC01B022841
:100F200075D8686A8007F7D42078400760D5E869EB
:100F30000027C00008D4E86940F08050E861E86903
:100F4000012700F0805000905C480168C90513D467
:100F50000168834641F480710160FFF797FD824686
:100F600006E000BFFFF792FDA0EB0A0064284ED810
:100F7000DBF80000C005F5D5E06801280AD008B10B
:100F8000052813D0286A20F001002862286A20F082
:100F9000040002E0286A40F001002862E06841F2A3
:100FA000883B98B1FFF772FD82460BE0286A40F05B
:100FB00004002862EEE700BFFFF768FDA0EB0A011E
:100FC00059455AD8286A8007F6D50CE0FFF75EFD30
:100FD000824605E0FFF75AFDA0EB0A0159454CD8BF
:100FE000286A8007F6D41FB1E86920F08050E861D4
:100FF000E06988B36968C1F38101022944D00228FD
:10100000C6F8608004D0FFF741FD044638E034E0C4
:10101000FFF73CFD074604E0FFF738FDC01B022840
:101020002BD828688001F7D4206AB0F5803F05D11D
:101030006868A16820F4003008436860D4E90801BA
:101040000843696821F4741108436860C6F8609029
:10105000FFF71CFD044606E025E000BFFFF716FD84
:10106000001B022809D828688001F7D51BE000BFC3
:10107000FFF70CFD001B022802D90320BDE8F88F02
:1010800028688001F4D40EE00128F7D06868226A4D
:1010900000F48031914204D1616A00F470108842FA
:1010A00001D00120EAE70020E8E70000001002403C
:1010B0000000424280044242440000200070004090
:1010C00010B5401EB0F1807F01D3012010BD4FF05C
:1010D000E02460610F21601700F09DFB0020A061FB
:1010E00007202061002010BD70B590F83C20012A37
:1010F00026D0012480F83C40022280F83D2003687D
:101100005A689D6822F070060A6832435A600D4B97
:1011100002689A4208D0B2F1804F05D00A4B9A4239
:1011200002D00A4B9A4204D1496825F08003194342
:10113000916080F83D40002180F83C10084670BD69
:10114000022070BD002C0140000400400008004057
:1011500010B5040003D094F83D0010B107E0012061
:1011600010BD002084F83C00204600F01FF802204B
:1011700084F83D00211D206800F052FA012084F817
:10118000460084F83E0084F83F0084F8400084F86C
:10119000410084F8420084F8430084F8440084F855
:1011A000450084F83D00002010BD000008B500682F
:1011B000B0F1804F08D10548C16941F00101C1611A
:1011C000C06900F00100009008BD0000001002405E
:1011D00090F83D10012901D001207047022180F8CC
:1011E0003D1000680B49884208D0B0F1804F05D00F
:1011F0000949884202D00949884204D1816801F036
:101200000701062903D0016841F0010101600020B7
:1012100070470000002C014000040040000800401E
:1012200070B5044690F83C00012817D0012584F8D9
:101230003C50022084F83D002068826822F077024A
:1012400022F47F4282600868502830D00DDC2028CC
:101250004DD005DC98B310283BD148E0022070BD8A
:10126000302844D0402834D139E0602828D0702874
:1012700006D0B0F5805F2CD0B0F5005F29D10AE030
:10128000CB68D1E90121206800F000FA206881686C
:1012900041F0770109E0CB68D1E90121206800F035
:1012A000F5F92068816841F48041816011E0CA68E5
:1012B0004968206800F0FCF95021206807E016E03A
:1012C000CA684968206800F004FA6021206800F0CC
:1012D000E7F984F83D50002084F83C0070BDCA68EE
:1012E0004968206800F0E4F940212068EFE72268AF
:1012F00001461046EBE770B5040004D094F83D00B9
:10130000002510B106E0012070BD84F83C50204655
:1013100000F022F8242084F83D002068C16821F400
:101320000051C160204600F0E7F92068016921F40E
:10133000904101612068416921F02A0141612068E2
:10134000C16841F40051C1602564202084F83D004B
:1013500084F83E00002070BD70B586B000250646BA
:10136000009501950295039500681E49884237D182
:101370001D49886940F480408861886900F4804094
:101380000490886940F0040088618869174C00F077
:10139000040004904815009002200190032003905F
:1013A00069462046FFF778FA2015CDE90005694621
:1013B00020460295FFF770FA0E4C0D482060102071
:1013C000C4E901058020C4E903056561A5612046E3
:1013D000E561FFF7D3F908B1FFF724F9746366629A
:1013E00006B070BD00380140001002400008014006
:1013F00044000240080100202DE9F843044690F81B
:101400003D001F4616460D4620284CD1C5B1BEB141
:1014100094F83C00012846D0012084F83C004FF0AD
:101420000008C4F84080212084F83D00FFF72EFB1F
:10143000A6848146E684A068B0F5805F03D004E00E
:101440000120BDE8F883206928B12E465FF0000531
:1014500084F83C800EE00026FAE78021204600F068
:10146000A7F9A0B9AEB116F8010B21684860E08C6D
:10147000401EE084E08C4B464FF0000200970028AD
:10148000EBD14FF04001204600F092F930B103203B
:10149000D7E735F8020BC0F30800E6E7202084F810
:1014A0003D000020CDE70220CBE7FEE7F0B585B098
:1014B000002423480094019402940394816941F02C
:1014C00010018161816901F010010491816941F08D
:1014D00020018161816901F020010491816941F05D
:1014E000040181618069174E00F004004FF400553B
:1014F0000490002229463046FFF7C3FA124F01221A
:1015000011463846FFF7BDFA0220CDE902400095AA
:101510000125694601953046FFF7BEF90B48009555
:10152000CDE9010469463846FFF7B6F900221146B5
:101530000620FFF717FB0620FFF706FB05B0F0BDFE
:10154000001002400010014000080140000031106E
:1015500010B586B0002416480094019402940394B8
:1015600004944FF080410594C0E900144FF6FF71D8
:10157000C0E90241802104618161FFF7E9FD08B102
:1015800072B6FEE74FF48050009069460848FFF7B6
:1015900047FE08B172B6FEE7049404A90448059416
:1015A000FFF7A2FD002801D072B6FEE706B010BD1D
:1015B0007C000020FEE7FEE770477047FFF76CBA3B
:1015C00030B58FB028216846FEF747FF14210AA8DE
:1015D000FEF743FF01210804CDE900100024029426
:1015E00002250491CDE907504FF460100990684638
:1015F000FFF7D6FB08B172B6FEE70F20CDE90A056A
:101600004FF48060CDE90C4002210AA80E94FFF748
:10161000DBFA002801D072B6FEE70FB030BD70478C
:10162000F0B50268164B174C174D4FF080479842A3
:1016300005D0B84203D0A04201D0A84203D122F085
:1016400070064A683243984205D0B84203D0A0429F
:1016500001D0A84203D122F44074CA6822434C69E5
:1016600022F08002224302608A68C2620A688262B3
:10167000984201D10969016301214161F0BD000077
:10168000002C0140000400400008004010B58468B0
:1016900042EA032224F47F440A432243826010BDBD
:1016A000826822F070020A4342F0070181607047AD
:1016B00010B5036A046A24F001040462846924F00A
:1016C000F00444EA021423F00A020A43846102622D
:1016D00010BD10B5036A23F0100303628369046A26
:1016E00023F4704343EA023224F0A00343EA0111D9
:1016F0008261016210BD000070B504460068016996
:10170000E26821F44051114301612169A068084356
:10171000616908432168CA6841F20C639A43024335
:10172000CA6020684169A26921F440711143416196
:101730001E492068884202D1FFF7ECFA01E0FFF76A
:10174000D9FA00EBC00101EB00126068642180004F
:10175000B2FBF0F3B3FBF1F36FF018067343B2FB87
:10176000F0F5B2FBF0F605EB8305322303EB05152C
:10177000B5FBF1F5B6FBF1F605F0F00505EB061546
:10178000B2FBF0F6B2FBF0F0B0FBF1F06FF0180234
:10179000504306EB800003EB0010B0FBF1F0216832
:1017A00000F00F002844886070BD00000038014040
:1017B0002DE9F041984617460E460446069D1DE069
:1017C000681C1BD02DB1FFF761F9A0EB0800A842FF
:1017D00014D92068C16821F4D071C16020684169C2
:1017E00021F001014161202084F83D0084F83E0091
:1017F000002084F83C000320BDE8F08120680068E8
:1018000036EA000004D00020B842D9D00020F3E727
:101810000120F9E7FEE70907090E002804DB00F1C3
:10182000E02080F80014704700F00F0000F1E02085
:1018300080F8141D704730380A2801D20120704703
:10184000002070470248016841F0030101607047C1
:10185000000801402DE9F35F07460199FEF7DBFD23
:101860000024DFF87480DFF8749030E00026B24680
:101870004FF4803BD8F800100025C1F824A0FFF7F2
:10188000E1FF1749C1F800B0D8F8001048464A6A8D
:1018900043699A42FBD901228270114B0422103B0A
:1018A0001A608278012AFCD08268C3699A4200D803
:1018B00001254A6A036A9A42FBD9C6F107008540AE
:1018C000385D761C05433D55072ED3DD641C019819
:1018D0008442CBDBBDE8FC9F7C00002000000020A0
:1018E0001008014010B5044600F0CCF80121D520C5
:1018F00000F014F80021E82000F010F8002108465C
:1019000000F00CF8E0B2012100F008F8BDE810404A
:1019100002210148FFF79EBF700000202DE9F0472B
:101920008A460446FFF78EFF0020224B224A2349B5
:1019300006464FF4803901272506C3F80090156844
:101940006E6215680FD500BFD5F824C0D1F8148099
:10195000C445F9D9C3F80070D5F824C0D1F8208067
:10196000C445F9D90CE0D5F824C0D1F81C80C44591
:10197000F9D91F60D5F824C0D1F82080C445F9D921
:101980006406401C240EC0B20828D5D3094B04209D
:10199000103B1860BAF1000F0AD04F704878002849
:1019A000FCD1106846621068426A0B6A9A42FBD901
:1019B000BDE8F087100801407C00002000000020F6
:1019C00010B5FFF73FFF094C4FF480302060DC205A
:1019D000FEF702FF0120206004490420103908604E
:1019E000BDE810406E20FEF7F7BE00001008014071
:1019F00010B5012000F01EF800F044F80121D520B8
:101A0000FFF78CFF0021E420FFF788FF0021FF2073
:101A1000FFF784FF01210846FFF780FF02210448F9
:101A2000FFF718FF00F02EF8BDE8104000F02AB8CC
:101A30007000002070B50546FFF704FF0E4C4FF410
:101A4000803020600120FEF7C7FE0C490D700C4A63
:101A500000201268506201202060074A0420103ADA
:101A60001060087818B108780028FCD170BDBDE876
:101A700070400120FEF7B0BE1008014000000020B9
:101A80007C0000200548002102685162044900687A
:101A9000426ACB68B2EBC30FFAD370477C000020D8
:101AA0000000002008B5FEF7FFFFFFF789FDFFF7F4
:101AB000FDFCFFF74DFD4048416941F001014161E6
:101AC0004069002200F00100009011460E20FFF74F
:101AD00049F80E20FFF738F8394838490C220160E0
:101AE0004FF4E131416000218160C160C0E904121E
:101AF0008161C161FFF7FFFB08B172B6FEE73048B4
:101B00004838FFF765FB2F48FEF766FC82B2642376
:101B10002C492B48FFF770FC0A20FEF75DFE2A488F
:101B2000016841F00301016027490120103108607C
:101B30004FF47A752846FEF74FFE0120FFF77AFF33
:101B4000FFF756FFFFF73CFF0020FFF773FFFFF79B
:101B50004FFF1420FEF740FE1A4C243C26E01BA148
:101B60001848FEF735FB1748FEF736FC82B22B46C5
:101B700014491348FFF740FC0020FFF75BFFA088E3
:101B8000FFF7B0FE0E4814A15438437802780D4890
:101B9000FEF71EFB0B48FEF71FFC82B22B460949DD
:101BA0000748FFF729FCA088801CA080A288E08855
:101BB0008242D4D9FEE70000001002400038014004
:101BC000C400002024000020000801406164647209
:101BD00020253034583A20002530325825303258EC
:101BE0000A000000000000000000000001020304E1
:101BF00006070809000000000102030430313233F7
:101C00003435363738394142434445464030580030
:101C10003031323334353637383961626364656662
:101C200040307800040000080000000000000002BE
:101C30000001000010000000581C000800000020F7
:101C40004800000028010008A01C000848000020EF
:101C50006807000044010008000000000000FFFFCA
:101C60000000000000000000000000000000000074
:101C700000000000000000000000000048656C6CDF
:101C80006F2074657374204469656E210A0000003A
:101C90000100000010000000000000000024F4001B
:04000005080000ED02
:00000001FF
